{
  "_format": "hh-sol-artifact-1",
  "contractName": "Create",
  "sourceName": "contracts/votingContract.sol",
  "abi": [
    {
      "inputs": [],
      "stateMutability": "nonpayable",
      "type": "constructor"
    },
    {
      "anonymous": false,
      "inputs": [
        {
          "indexed": true,
          "internalType": "uint256",
          "name": "candidateId",
          "type": "uint256"
        },
        {
          "indexed": false,
          "internalType": "string",
          "name": "age",
          "type": "string"
        },
        {
          "indexed": false,
          "internalType": "string",
          "name": "name",
          "type": "string"
        },
        {
          "indexed": false,
          "internalType": "string",
          "name": "image",
          "type": "string"
        },
        {
          "indexed": false,
          "internalType": "uint256",
          "name": "voteCount",
          "type": "uint256"
        },
        {
          "indexed": false,
          "internalType": "address",
          "name": "_address",
          "type": "address"
        },
        {
          "indexed": false,
          "internalType": "string",
          "name": "ipfs",
          "type": "string"
        }
      ],
      "name": "CandidateCreate",
      "type": "event"
    },
    {
      "anonymous": false,
      "inputs": [
        {
          "indexed": true,
          "internalType": "uint256",
          "name": "voter_voterId",
          "type": "uint256"
        },
        {
          "indexed": false,
          "internalType": "string",
          "name": "voter_name",
          "type": "string"
        },
        {
          "indexed": false,
          "internalType": "string",
          "name": "voter_image",
          "type": "string"
        },
        {
          "indexed": false,
          "internalType": "address",
          "name": "voter_address",
          "type": "address"
        },
        {
          "indexed": false,
          "internalType": "uint256",
          "name": "voter_allow",
          "type": "uint256"
        },
        {
          "indexed": false,
          "internalType": "bool",
          "name": "voter_voted",
          "type": "bool"
        },
        {
          "indexed": false,
          "internalType": "string",
          "name": "ipfs",
          "type": "string"
        }
      ],
      "name": "VoterCreated",
      "type": "event"
    },
    {
      "inputs": [
        {
          "internalType": "uint256",
          "name": "",
          "type": "uint256"
        }
      ],
      "name": "CandidateAddress",
      "outputs": [
        {
          "internalType": "address",
          "name": "",
          "type": "address"
        }
      ],
      "stateMutability": "view",
      "type": "function"
    },
    {
      "inputs": [],
      "name": "_candidateId",
      "outputs": [
        {
          "internalType": "uint256",
          "name": "_value",
          "type": "uint256"
        }
      ],
      "stateMutability": "view",
      "type": "function"
    },
    {
      "inputs": [],
      "name": "_voterId",
      "outputs": [
        {
          "internalType": "uint256",
          "name": "_value",
          "type": "uint256"
        }
      ],
      "stateMutability": "view",
      "type": "function"
    },
    {
      "inputs": [
        {
          "internalType": "address",
          "name": "",
          "type": "address"
        }
      ],
      "name": "candidates",
      "outputs": [
        {
          "internalType": "uint256",
          "name": "candidateId",
          "type": "uint256"
        },
        {
          "internalType": "string",
          "name": "age",
          "type": "string"
        },
        {
          "internalType": "string",
          "name": "name",
          "type": "string"
        },
        {
          "internalType": "string",
          "name": "image",
          "type": "string"
        },
        {
          "internalType": "uint256",
          "name": "voteCount",
          "type": "uint256"
        },
        {
          "internalType": "address",
          "name": "_address",
          "type": "address"
        },
        {
          "internalType": "string",
          "name": "ipfs",
          "type": "string"
        }
      ],
      "stateMutability": "view",
      "type": "function"
    },
    {
      "inputs": [],
      "name": "getCandidate",
      "outputs": [
        {
          "internalType": "address[]",
          "name": "",
          "type": "address[]"
        }
      ],
      "stateMutability": "view",
      "type": "function"
    },
    {
      "inputs": [],
      "name": "getCandidateLength",
      "outputs": [
        {
          "internalType": "uint256",
          "name": "",
          "type": "uint256"
        }
      ],
      "stateMutability": "view",
      "type": "function"
    },
    {
      "inputs": [
        {
          "internalType": "address",
          "name": "_address",
          "type": "address"
        }
      ],
      "name": "getCandidatedata",
      "outputs": [
        {
          "internalType": "string",
          "name": "",
          "type": "string"
        },
        {
          "internalType": "string",
          "name": "",
          "type": "string"
        },
        {
          "internalType": "uint256",
          "name": "",
          "type": "uint256"
        },
        {
          "internalType": "string",
          "name": "",
          "type": "string"
        },
        {
          "internalType": "uint256",
          "name": "",
          "type": "uint256"
        },
        {
          "internalType": "string",
          "name": "",
          "type": "string"
        },
        {
          "internalType": "address",
          "name": "",
          "type": "address"
        }
      ],
      "stateMutability": "view",
      "type": "function"
    },
    {
      "inputs": [],
      "name": "getVotedVoterList",
      "outputs": [
        {
          "internalType": "address[]",
          "name": "",
          "type": "address[]"
        }
      ],
      "stateMutability": "view",
      "type": "function"
    },
    {
      "inputs": [],
      "name": "getVoterLength",
      "outputs": [
        {
          "internalType": "uint256",
          "name": "",
          "type": "uint256"
        }
      ],
      "stateMutability": "view",
      "type": "function"
    },
    {
      "inputs": [],
      "name": "getVoterList",
      "outputs": [
        {
          "internalType": "address[]",
          "name": "",
          "type": "address[]"
        }
      ],
      "stateMutability": "view",
      "type": "function"
    },
    {
      "inputs": [
        {
          "internalType": "address",
          "name": "_address",
          "type": "address"
        }
      ],
      "name": "getVoterdata",
      "outputs": [
        {
          "internalType": "uint256",
          "name": "",
          "type": "uint256"
        },
        {
          "internalType": "string",
          "name": "",
          "type": "string"
        },
        {
          "internalType": "string",
          "name": "",
          "type": "string"
        },
        {
          "internalType": "address",
          "name": "",
          "type": "address"
        },
        {
          "internalType": "string",
          "name": "",
          "type": "string"
        },
        {
          "internalType": "uint256",
          "name": "",
          "type": "uint256"
        },
        {
          "internalType": "bool",
          "name": "",
          "type": "bool"
        }
      ],
      "stateMutability": "view",
      "type": "function"
    },
    {
      "inputs": [
        {
          "internalType": "address",
          "name": "_address",
          "type": "address"
        },
        {
          "internalType": "string",
          "name": "_name",
          "type": "string"
        },
        {
          "internalType": "string",
          "name": "_age",
          "type": "string"
        },
        {
          "internalType": "string",
          "name": "_image",
          "type": "string"
        },
        {
          "internalType": "string",
          "name": "_ipfs",
          "type": "string"
        }
      ],
      "name": "setCandidate",
      "outputs": [],
      "stateMutability": "nonpayable",
      "type": "function"
    },
    {
      "inputs": [
        {
          "internalType": "address",
          "name": "_candidateAddress",
          "type": "address"
        },
        {
          "internalType": "uint256",
          "name": "_candidateVoteId",
          "type": "uint256"
        }
      ],
      "name": "vote",
      "outputs": [],
      "stateMutability": "nonpayable",
      "type": "function"
    },
    {
      "inputs": [
        {
          "internalType": "uint256",
          "name": "",
          "type": "uint256"
        }
      ],
      "name": "votedVoters",
      "outputs": [
        {
          "internalType": "address",
          "name": "",
          "type": "address"
        }
      ],
      "stateMutability": "view",
      "type": "function"
    },
    {
      "inputs": [
        {
          "internalType": "uint256",
          "name": "",
          "type": "uint256"
        }
      ],
      "name": "voterAddress",
      "outputs": [
        {
          "internalType": "address",
          "name": "",
          "type": "address"
        }
      ],
      "stateMutability": "view",
      "type": "function"
    },
    {
      "inputs": [
        {
          "internalType": "address",
          "name": "_address",
          "type": "address"
        },
        {
          "internalType": "string",
          "name": "_name",
          "type": "string"
        },
        {
          "internalType": "string",
          "name": "_image",
          "type": "string"
        },
        {
          "internalType": "string",
          "name": "_ipfs",
          "type": "string"
        }
      ],
      "name": "voterRight",
      "outputs": [],
      "stateMutability": "nonpayable",
      "type": "function"
    },
    {
      "inputs": [
        {
          "internalType": "address",
          "name": "",
          "type": "address"
        }
      ],
      "name": "voters",
      "outputs": [
        {
          "internalType": "uint256",
          "name": "voter_voterId",
          "type": "uint256"
        },
        {
          "internalType": "string",
          "name": "voter_name",
          "type": "string"
        },
        {
          "internalType": "string",
          "name": "voter_image",
          "type": "string"
        },
        {
          "internalType": "address",
          "name": "voter_address",
          "type": "address"
        },
        {
          "internalType": "uint256",
          "name": "voter_allow",
          "type": "uint256"
        },
        {
          "internalType": "bool",
          "name": "voter_voted",
          "type": "bool"
        },
        {
          "internalType": "string",
          "name": "ipfs",
          "type": "string"
        },
        {
          "internalType": "uint256",
          "name": "voter_voteCount",
          "type": "uint256"
        }
      ],
      "stateMutability": "view",
      "type": "function"
    },
    {
      "inputs": [],
      "name": "votingOrganizer",
      "outputs": [
        {
          "internalType": "address",
          "name": "",
          "type": "address"
        }
      ],
      "stateMutability": "view",
      "type": "function"
    }
  ],
  "bytecode": "0x608060405234801561001057600080fd5b5033600260006101000a81548173ffffffffffffffffffffffffffffffffffffffff021916908373ffffffffffffffffffffffffffffffffffffffff160217905550612740806100616000396000f3fe608060405234801561001057600080fd5b50600436106101165760003560e01c8063908fdecd116100a2578063b63c82ca11610071578063b63c82ca14610304578063b9be31521461033a578063c5036fd414610358578063c91ec7121461038e578063f7522a83146103aa57610116565b8063908fdecd14610261578063a3ec138d14610291578063a7388967146102c8578063b28d92ae146102e657610116565b80635f74bbde116100e95780635f74bbde146101a357806370218b85146101bf5780637831ffb3146101dd5780638ab66a901461020d5780638e9456851461024357610116565b80630361419e1461011b57806305ad45a4146101375780635cc48aa7146101555780635d55f2de14610173575b600080fd5b61013560048036038101906101309190611c75565b6103c8565b005b61013f61067a565b60405161014c9190611d49565b60405180910390f35b61015d610687565b60405161016a9190611d73565b60405180910390f35b61018d60048036038101906101889190611dba565b6106ad565b60405161019a9190611d73565b60405180910390f35b6101bd60048036038101906101b89190611de7565b6106ec565b005b6101c76108b4565b6040516101d49190611ee5565b60405180910390f35b6101f760048036038101906101f29190611dba565b610942565b6040516102049190611d73565b60405180910390f35b61022760048036038101906102229190611f07565b610981565b60405161023a9796959493929190611fbc565b60405180910390f35b61024b610c03565b6040516102589190611ee5565b60405180910390f35b61027b60048036038101906102769190611dba565b610c91565b6040516102889190611d73565b60405180910390f35b6102ab60048036038101906102a69190611f07565b610cd0565b6040516102bf989796959493929190612062565b60405180910390f35b6102d0610edd565b6040516102dd9190611d49565b60405180910390f35b6102ee610ee9565b6040516102fb9190611ee5565b60405180910390f35b61031e60048036038101906103199190611f07565b610f77565b60405161033197969594939291906120f5565b60405180910390f35b6103426113be565b60405161034f9190611d49565b60405180910390f35b610372600480360381019061036d9190611f07565b6113ca565b6040516103859796959493929190612180565b60405180910390f35b6103a860048036038101906103a39190612204565b611792565b005b6103b26119e9565b6040516103bf9190611d49565b60405180910390f35b3373ffffffffffffffffffffffffffffffffffffffff16600260009054906101000a900473ffffffffffffffffffffffffffffffffffffffff1673ffffffffffffffffffffffffffffffffffffffff1614610458576040517f08c379a000000000000000000000000000000000000000000000000000000000815260040161044f9061233b565b60405180910390fd5b61046260006119f6565b600061046e6000611a0c565b90506000600760008773ffffffffffffffffffffffffffffffffffffffff1673ffffffffffffffffffffffffffffffffffffffff168152602001908152602001600020905060008160040154146104fa576040517f08c379a00000000000000000000000000000000000000000000000000000000081526004016104f1906123a7565b60405180910390fd5b600181600401819055508481600101908051906020019061051c929190611a1a565b5083816002019080519060200190610535929190611a1a565b50858160030160006101000a81548173ffffffffffffffffffffffffffffffffffffffff021916908373ffffffffffffffffffffffffffffffffffffffff16021790555081816000018190555060008160050160006101000a81548160ff021916908315150217905550828160060190805190602001906105b7929190611a1a565b506006869080600181540180825580915050600190039060005260206000200160009091909190916101000a81548173ffffffffffffffffffffffffffffffffffffffff021916908373ffffffffffffffffffffffffffffffffffffffff160217905550817fe52fb3434e6f7b77385685ffafcabbd2e6b435d9d014faf523149395b26c66da86868985600401548660050160009054906101000a900460ff168960405161066a969594939291906123c7565b60405180910390a2505050505050565b6000600680549050905090565b600260009054906101000a900473ffffffffffffffffffffffffffffffffffffffff1681565b600681815481106106bd57600080fd5b906000526020600020016000915054906101000a900473ffffffffffffffffffffffffffffffffffffffff1681565b6000600760003373ffffffffffffffffffffffffffffffffffffffff1673ffffffffffffffffffffffffffffffffffffffff16815260200190815260200160002090508060050160009054906101000a900460ff1615610781576040517f08c379a000000000000000000000000000000000000000000000000000000000815260040161077890612489565b60405180910390fd5b6000816004015414156107c9576040517f08c379a00000000000000000000000000000000000000000000000000000000081526004016107c0906124f5565b60405180910390fd5b60018160050160006101000a81548160ff0219169083151502179055508181600701819055506005339080600181540180825580915050600190039060005260206000200160009091909190916101000a81548173ffffffffffffffffffffffffffffffffffffffff021916908373ffffffffffffffffffffffffffffffffffffffff1602179055508060040154600460008573ffffffffffffffffffffffffffffffffffffffff1673ffffffffffffffffffffffffffffffffffffffff16815260200190815260200160002060040160008282546108a89190612544565b92505081905550505050565b6060600380548060200260200160405190810160405280929190818152602001828054801561093857602002820191906000526020600020905b8160009054906101000a900473ffffffffffffffffffffffffffffffffffffffff1673ffffffffffffffffffffffffffffffffffffffff16815260200190600101908083116108ee575b5050505050905090565b6005818154811061095257600080fd5b906000526020600020016000915054906101000a900473ffffffffffffffffffffffffffffffffffffffff1681565b60046020528060005260406000206000915090508060000154908060010180546109aa906125c9565b80601f01602080910402602001604051908101604052809291908181526020018280546109d6906125c9565b8015610a235780601f106109f857610100808354040283529160200191610a23565b820191906000526020600020905b815481529060010190602001808311610a0657829003601f168201915b505050505090806002018054610a38906125c9565b80601f0160208091040260200160405190810160405280929190818152602001828054610a64906125c9565b8015610ab15780601f10610a8657610100808354040283529160200191610ab1565b820191906000526020600020905b815481529060010190602001808311610a9457829003601f168201915b505050505090806003018054610ac6906125c9565b80601f0160208091040260200160405190810160405280929190818152602001828054610af2906125c9565b8015610b3f5780601f10610b1457610100808354040283529160200191610b3f565b820191906000526020600020905b815481529060010190602001808311610b2257829003601f168201915b5050505050908060040154908060050160009054906101000a900473ffffffffffffffffffffffffffffffffffffffff1690806006018054610b80906125c9565b80601f0160208091040260200160405190810160405280929190818152602001828054610bac906125c9565b8015610bf95780601f10610bce57610100808354040283529160200191610bf9565b820191906000526020600020905b815481529060010190602001808311610bdc57829003601f168201915b5050505050905087565b60606005805480602002602001604051908101604052809291908181526020018280548015610c8757602002820191906000526020600020905b8160009054906101000a900473ffffffffffffffffffffffffffffffffffffffff1673ffffffffffffffffffffffffffffffffffffffff1681526020019060010190808311610c3d575b5050505050905090565b60038181548110610ca157600080fd5b906000526020600020016000915054906101000a900473ffffffffffffffffffffffffffffffffffffffff1681565b6007602052806000526040600020600091509050806000015490806001018054610cf9906125c9565b80601f0160208091040260200160405190810160405280929190818152602001828054610d25906125c9565b8015610d725780601f10610d4757610100808354040283529160200191610d72565b820191906000526020600020905b815481529060010190602001808311610d5557829003601f168201915b505050505090806002018054610d87906125c9565b80601f0160208091040260200160405190810160405280929190818152602001828054610db3906125c9565b8015610e005780601f10610dd557610100808354040283529160200191610e00565b820191906000526020600020905b815481529060010190602001808311610de357829003601f168201915b5050505050908060030160009054906101000a900473ffffffffffffffffffffffffffffffffffffffff16908060040154908060050160009054906101000a900460ff1690806006018054610e54906125c9565b80601f0160208091040260200160405190810160405280929190818152602001828054610e80906125c9565b8015610ecd5780601f10610ea257610100808354040283529160200191610ecd565b820191906000526020600020905b815481529060010190602001808311610eb057829003601f168201915b5050505050908060070154905088565b60018060000154905081565b60606006805480602002602001604051908101604052809291908181526020018280548015610f6d57602002820191906000526020600020905b8160009054906101000a900473ffffffffffffffffffffffffffffffffffffffff1673ffffffffffffffffffffffffffffffffffffffff1681526020019060010190808311610f23575b5050505050905090565b60608060006060600060606000600460008973ffffffffffffffffffffffffffffffffffffffff1673ffffffffffffffffffffffffffffffffffffffff168152602001908152602001600020600101600460008a73ffffffffffffffffffffffffffffffffffffffff1673ffffffffffffffffffffffffffffffffffffffff168152602001908152602001600020600201600460008b73ffffffffffffffffffffffffffffffffffffffff1673ffffffffffffffffffffffffffffffffffffffff16815260200190815260200160002060000154600460008c73ffffffffffffffffffffffffffffffffffffffff1673ffffffffffffffffffffffffffffffffffffffff168152602001908152602001600020600301600460008d73ffffffffffffffffffffffffffffffffffffffff1673ffffffffffffffffffffffffffffffffffffffff16815260200190815260200160002060040154600460008e73ffffffffffffffffffffffffffffffffffffffff1673ffffffffffffffffffffffffffffffffffffffff168152602001908152602001600020600601600460008f73ffffffffffffffffffffffffffffffffffffffff1673ffffffffffffffffffffffffffffffffffffffff16815260200190815260200160002060050160009054906101000a900473ffffffffffffffffffffffffffffffffffffffff16868054611181906125c9565b80601f01602080910402602001604051908101604052809291908181526020018280546111ad906125c9565b80156111fa5780601f106111cf576101008083540402835291602001916111fa565b820191906000526020600020905b8154815290600101906020018083116111dd57829003601f168201915b5050505050965085805461120d906125c9565b80601f0160208091040260200160405190810160405280929190818152602001828054611239906125c9565b80156112865780601f1061125b57610100808354040283529160200191611286565b820191906000526020600020905b81548152906001019060200180831161126957829003601f168201915b50505050509550838054611299906125c9565b80601f01602080910402602001604051908101604052809291908181526020018280546112c5906125c9565b80156113125780601f106112e757610100808354040283529160200191611312565b820191906000526020600020905b8154815290600101906020018083116112f557829003601f168201915b50505050509350818054611325906125c9565b80601f0160208091040260200160405190810160405280929190818152602001828054611351906125c9565b801561139e5780601f106113735761010080835404028352916020019161139e565b820191906000526020600020905b81548152906001019060200180831161138157829003601f168201915b505050505091509650965096509650965096509650919395979092949650565b60008060000154905081565b600060608060006060600080600760008973ffffffffffffffffffffffffffffffffffffffff1673ffffffffffffffffffffffffffffffffffffffff16815260200190815260200160002060000154600760008a73ffffffffffffffffffffffffffffffffffffffff1673ffffffffffffffffffffffffffffffffffffffff168152602001908152602001600020600101600760008b73ffffffffffffffffffffffffffffffffffffffff1673ffffffffffffffffffffffffffffffffffffffff168152602001908152602001600020600201600760008c73ffffffffffffffffffffffffffffffffffffffff1673ffffffffffffffffffffffffffffffffffffffff16815260200190815260200160002060030160009054906101000a900473ffffffffffffffffffffffffffffffffffffffff16600760008d73ffffffffffffffffffffffffffffffffffffffff1673ffffffffffffffffffffffffffffffffffffffff168152602001908152602001600020600601600760008e73ffffffffffffffffffffffffffffffffffffffff1673ffffffffffffffffffffffffffffffffffffffff16815260200190815260200160002060040154600760008f73ffffffffffffffffffffffffffffffffffffffff1673ffffffffffffffffffffffffffffffffffffffff16815260200190815260200160002060050160009054906101000a900460ff168580546115e1906125c9565b80601f016020809104026020016040519081016040528092919081815260200182805461160d906125c9565b801561165a5780601f1061162f5761010080835404028352916020019161165a565b820191906000526020600020905b81548152906001019060200180831161163d57829003601f168201915b5050505050955084805461166d906125c9565b80601f0160208091040260200160405190810160405280929190818152602001828054611699906125c9565b80156116e65780601f106116bb576101008083540402835291602001916116e6565b820191906000526020600020905b8154815290600101906020018083116116c957829003601f168201915b505050505094508280546116f9906125c9565b80601f0160208091040260200160405190810160405280929190818152602001828054611725906125c9565b80156117725780601f1061174757610100808354040283529160200191611772565b820191906000526020600020905b81548152906001019060200180831161175557829003601f168201915b505050505092509650965096509650965096509650919395979092949650565b3373ffffffffffffffffffffffffffffffffffffffff16600260009054906101000a900473ffffffffffffffffffffffffffffffffffffffff1673ffffffffffffffffffffffffffffffffffffffff1614611822576040517f08c379a00000000000000000000000000000000000000000000000000000000081526004016118199061266d565b60405180910390fd5b61182c60016119f6565b60006118386001611a0c565b90506000600460008873ffffffffffffffffffffffffffffffffffffffff1673ffffffffffffffffffffffffffffffffffffffff168152602001908152602001600020905084816001019080519060200190611895929190611a1a565b50858160020190805190602001906118ae929190611a1a565b50818160000181905550838160030190805190602001906118d0929190611a1a565b5060008160040181905550868160050160006101000a81548173ffffffffffffffffffffffffffffffffffffffff021916908373ffffffffffffffffffffffffffffffffffffffff16021790555082816006019080519060200190611936929190611a1a565b506003879080600181540180825580915050600190039060005260206000200160009091909190916101000a81548173ffffffffffffffffffffffffffffffffffffffff021916908373ffffffffffffffffffffffffffffffffffffffff160217905550817fd297f12b256bb8485a6013fb5e302017018123e99a0ebb20756c09e1707b4b9086888785600401548c896040516119d89695949392919061268d565b60405180910390a250505050505050565b6000600380549050905090565b6001816000016000828254019250508190555050565b600081600001549050919050565b828054611a26906125c9565b90600052602060002090601f016020900481019282611a485760008555611a8f565b82601f10611a6157805160ff1916838001178555611a8f565b82800160010185558215611a8f579182015b82811115611a8e578251825591602001919060010190611a73565b5b509050611a9c9190611aa0565b5090565b5b80821115611ab9576000816000905550600101611aa1565b5090565b6000604051905090565b600080fd5b600080fd5b600073ffffffffffffffffffffffffffffffffffffffff82169050919050565b6000611afc82611ad1565b9050919050565b611b0c81611af1565b8114611b1757600080fd5b50565b600081359050611b2981611b03565b92915050565b600080fd5b600080fd5b6000601f19601f8301169050919050565b7f4e487b7100000000000000000000000000000000000000000000000000000000600052604160045260246000fd5b611b8282611b39565b810181811067ffffffffffffffff82111715611ba157611ba0611b4a565b5b80604052505050565b6000611bb4611abd565b9050611bc08282611b79565b919050565b600067ffffffffffffffff821115611be057611bdf611b4a565b5b611be982611b39565b9050602081019050919050565b82818337600083830152505050565b6000611c18611c1384611bc5565b611baa565b905082815260208101848484011115611c3457611c33611b34565b5b611c3f848285611bf6565b509392505050565b600082601f830112611c5c57611c5b611b2f565b5b8135611c6c848260208601611c05565b91505092915050565b60008060008060808587031215611c8f57611c8e611ac7565b5b6000611c9d87828801611b1a565b945050602085013567ffffffffffffffff811115611cbe57611cbd611acc565b5b611cca87828801611c47565b935050604085013567ffffffffffffffff811115611ceb57611cea611acc565b5b611cf787828801611c47565b925050606085013567ffffffffffffffff811115611d1857611d17611acc565b5b611d2487828801611c47565b91505092959194509250565b6000819050919050565b611d4381611d30565b82525050565b6000602082019050611d5e6000830184611d3a565b92915050565b611d6d81611af1565b82525050565b6000602082019050611d886000830184611d64565b92915050565b611d9781611d30565b8114611da257600080fd5b50565b600081359050611db481611d8e565b92915050565b600060208284031215611dd057611dcf611ac7565b5b6000611dde84828501611da5565b91505092915050565b60008060408385031215611dfe57611dfd611ac7565b5b6000611e0c85828601611b1a565b9250506020611e1d85828601611da5565b9150509250929050565b600081519050919050565b600082825260208201905092915050565b6000819050602082019050919050565b611e5c81611af1565b82525050565b6000611e6e8383611e53565b60208301905092915050565b6000602082019050919050565b6000611e9282611e27565b611e9c8185611e32565b9350611ea783611e43565b8060005b83811015611ed8578151611ebf8882611e62565b9750611eca83611e7a565b925050600181019050611eab565b5085935050505092915050565b60006020820190508181036000830152611eff8184611e87565b905092915050565b600060208284031215611f1d57611f1c611ac7565b5b6000611f2b84828501611b1a565b91505092915050565b600081519050919050565b600082825260208201905092915050565b60005b83811015611f6e578082015181840152602081019050611f53565b83811115611f7d576000848401525b50505050565b6000611f8e82611f34565b611f988185611f3f565b9350611fa8818560208601611f50565b611fb181611b39565b840191505092915050565b600060e082019050611fd1600083018a611d3a565b8181036020830152611fe38189611f83565b90508181036040830152611ff78188611f83565b9050818103606083015261200b8187611f83565b905061201a6080830186611d3a565b61202760a0830185611d64565b81810360c08301526120398184611f83565b905098975050505050505050565b60008115159050919050565b61205c81612047565b82525050565b600061010082019050612078600083018b611d3a565b818103602083015261208a818a611f83565b9050818103604083015261209e8189611f83565b90506120ad6060830188611d64565b6120ba6080830187611d3a565b6120c760a0830186612053565b81810360c08301526120d98185611f83565b90506120e860e0830184611d3a565b9998505050505050505050565b600060e082019050818103600083015261210f818a611f83565b905081810360208301526121238189611f83565b90506121326040830188611d3a565b81810360608301526121448187611f83565b90506121536080830186611d3a565b81810360a08301526121658185611f83565b905061217460c0830184611d64565b98975050505050505050565b600060e082019050612195600083018a611d3a565b81810360208301526121a78189611f83565b905081810360408301526121bb8188611f83565b90506121ca6060830187611d64565b81810360808301526121dc8186611f83565b90506121eb60a0830185611d3a565b6121f860c0830184612053565b98975050505050505050565b600080600080600060a086880312156122205761221f611ac7565b5b600061222e88828901611b1a565b955050602086013567ffffffffffffffff81111561224f5761224e611acc565b5b61225b88828901611c47565b945050604086013567ffffffffffffffff81111561227c5761227b611acc565b5b61228888828901611c47565b935050606086013567ffffffffffffffff8111156122a9576122a8611acc565b5b6122b588828901611c47565b925050608086013567ffffffffffffffff8111156122d6576122d5611acc565b5b6122e288828901611c47565b9150509295509295909350565b7f4f4e4c59204f5247414e495a45522043414e2043524541544520564f54455200600082015250565b6000612325601f83611f3f565b9150612330826122ef565b602082019050919050565b6000602082019050818103600083015261235481612318565b9050919050565b7f566f74657220616c726561647920657869737473000000000000000000000000600082015250565b6000612391601483611f3f565b915061239c8261235b565b602082019050919050565b600060208201905081810360008301526123c081612384565b9050919050565b600060c08201905081810360008301526123e18189611f83565b905081810360208301526123f58188611f83565b90506124046040830187611d64565b6124116060830186611d3a565b61241e6080830185612053565b81810360a08301526124308184611f83565b9050979650505050505050565b7f594f55204841564520414c524541445920564f54454420210000000000000000600082015250565b6000612473601883611f3f565b915061247e8261243d565b602082019050919050565b600060208201905081810360008301526124a281612466565b9050919050565b7f594f552048415645204e4f20524947485420544f20564f544500000000000000600082015250565b60006124df601983611f3f565b91506124ea826124a9565b602082019050919050565b6000602082019050818103600083015261250e816124d2565b9050919050565b7f4e487b7100000000000000000000000000000000000000000000000000000000600052601160045260246000fd5b600061254f82611d30565b915061255a83611d30565b9250827fffffffffffffffffffffffffffffffffffffffffffffffffffffffffffffffff0382111561258f5761258e612515565b5b828201905092915050565b7f4e487b7100000000000000000000000000000000000000000000000000000000600052602260045260246000fd5b600060028204905060018216806125e157607f821691505b602082108114156125f5576125f461259a565b5b50919050565b7f4f4e4c59204f5247414e495a45522043414e20415554484f52495a452043414e60008201527f4449444154450000000000000000000000000000000000000000000000000000602082015250565b6000612657602683611f3f565b9150612662826125fb565b604082019050919050565b600060208201905081810360008301526126868161264a565b9050919050565b600060c08201905081810360008301526126a78189611f83565b905081810360208301526126bb8188611f83565b905081810360408301526126cf8187611f83565b90506126de6060830186611d3a565b6126eb6080830185611d64565b81810360a08301526126fd8184611f83565b905097965050505050505056fea2646970667358221220140d30cba7af0f7331a2f9ecba7772238f08ca8a68dd67255d3fc532a0247ad464736f6c63430008090033",
  "linkReferences": {},
  "deployedLinkReferences": {}
}